:100000000C942A000C9445000C9445000C94450077
:100010000C9445000C9445000C9445000C9445004C
:100020000C9445000C9445000C9445000C9445003C
:100030000C9445000C9445000C9445000C9445002C
:100040000C9445000C9445000C9445000C9445001C
:100050000C94450011241FBECFE5D8E0DEBFCDBF14
:1000600012E0A0E6B0E0EEE1F3E102C005900D92EF
:10007000A031B107D9F712E0A0E1B2E001C01D92B2
:10008000A031B107E1F70C9443030C940000CF9327
:10009000DF93CDB7DEB7E0970FB6F894DEBF0FBEA3
:1000A000CDBF8EA7ABE3B0E0EBE3F0E090818FE74C
:1000B00089238C9380E090E0A8ECB2E48CA39DA30C
:1000C000AEA3BFA322E539E44DE150E46CA17DA1CC
:1000D0008EA19FA10E941E05DC01CB0189A79AA7D2
:1000E000ABA7BCA720E030E040E85FE369A57AA5B4
:1000F0008BA59CA50E94A80688230CF003C081E074
:1001000088A718C020E030E04FE753E469A57AA53E
:100110008BA59CA50E943C0618160CF002C018A6E0
:1001200009C069A57AA58BA59CA50E946D03DC0179
:10013000CB0188A788A58BA38BA18A95F1F78BA308
:10014000ABE3B0E0EBE3F0E0808180688C938EA5B8
:10015000282F332738AB2FA78FA598A9009739F000
:100160002FA538A92130310509F448C096C080E098
:1001700090E0A8E4B3E48A8F9B8FAC8FBD8F22E51B
:1001800039E44DE150E46A8D7B8D8C8D9D8D0E940C
:100190001E05DC01CB018F8F98A3A9A3BAA320E091
:1001A00030E040E85FE36F8D78A189A19AA10E94B9
:1001B000A80688230CF003C081E08E8F18C020E0D1
:1001C00030E04FE753E46F8D78A189A19AA10E9496
:1001D0003C0618160CF002C01E8E09C06F8D78A167
:1001E00089A19AA10E946D03DC01CB018E8F8E8DB7
:1001F000898F898D8A95F1F7898FA6C080E090E07C
:10020000A0E2B1E48F87988BA98BBA8B26E636E6FD
:1002100046EE54E46F85788989899A890E941E0583
:10022000DC01CB018D8B9E8BAF8BB88F20E030E053
:1002300040E85FE36D897E898F89988D0E94A806CA
:1002400088230CF005C081E090E09C8B8B8B1AC05A
:1002500020E03FEF4FE757E46D897E898F89988DC5
:100260000E943C0618160CF003C01C8A1B8A0AC0A8
:100270006D897E898F89988D0E946D03DC01CB0189
:100280009C8B8B8B8B899C899E878D878D859E858A
:100290000197F1F79E878D8757C01DA651C080E05A
:1002A00090E0A8ECB2E48B839C83AD83BE8326E60A
:1002B00036E646EE54E46B817C818D819E810E94FE
:1002C0001E05DC01CB0189879A87AB87BC8720E0BC
:1002D00030E040E85FE369857A858B859C850E94E4
:1002E000A80688230CF005C081E090E098878F83F2
:1002F0001AC020E03FEF4FE757E469857A858B8588
:100300009C850E943C0618160CF003C018861F82BC
:100310000AC069857A858B859C850E946D03DC0106
:10032000CB0198878F838F8198859A838983898170
:100330009A810197F1F79A8389838DA58F5F8DA7A5
:100340008DA58A3008F4ABCFABE3B0E0EBE3F0E08F
:1003500090818FE789238C93E0960FB6F894DEBFE7
:100360000FBECDBFDF91CF910895CF93DF93CDB76F
:10037000DEB722970FB6F894DEBF0FBECDBF8983DC
:100380006A8389818F778983EBE3F0E089818083B9
:100390008A810E944700EBE3F0E0108222960FB6BC
:1003A000F894DEBF0FBECDBFDF91CF910895CF93FC
:1003B000DF93CDB7DEB762E08CE00E94B501DF913C
:1003C000CF910895CF93DF93CDB7DEB762E08CE194
:1003D0000E94B501DF91CF910895CF93DF93CDB700
:1003E000DEB760E08AE00E94B501DF91CF91089509
:1003F000CF93DF93CDB7DEB761E08BE10E94B5010B
:10040000DF91CF910895CF93DF93CDB7DEB761E051
:100410008DE00E94B501DF91CF910895CF93DF93D6
:10042000CDB7DEB760E08BE00E94B501DF91CF91E0
:100430000895CF93DF93CDB7DEB70E94ED01DF9132
:10044000CF910895CF93DF93CDB7DEB760E089E019
:100450000E94B501DF91CF910895CF93DF93CDB77F
:10046000DEB760E088E00E94B501DF91CF9108958A
:10047000CF93DF93CDB7DEB723970FB6F894DEBFE7
:100480000FBECDBF9B838A8319C0EA81FB81808127
:10049000898389818D3019F40E9403020AC0898101
:1004A0008A3019F40E94ED0104C0898160E00E9445
:1004B000B5018A819B8101969B838A83EA81FB81B6
:1004C0008081882311F723960FB6F894DEBF0FBE04
:1004D000CDBFDF91CF910895CF93DF93CDB7DEB736
:1004E00080E690E00E9438028FE790E00E94380298
:1004F0008EE990E00E9438028DEB90E00E94380275
:100500008EE990E00E9438028CED90E00E94380263
:100510008BEF90E00E9438028DEB90E00E94380251
:100520008AE191E00E94380289E391E00E9438025A
:1005300088E591E00E94380287E791E00E94380246
:1005400087E791E00E94380286E991E00E94380234
:1005500085EB91E00E94380284ED91E00E94380220
:10056000DF91CF910895CF93DF93CDB7DEB7229778
:100570000FB6F894DEBF0FBECDBF89836A830E9499
:10058000E20105C00E94220289818150898389810C
:100590008823C1F705C00E9419028A8181508A838D
:1005A0008A818823C1F722960FB6F894DEBF0FBE6A
:1005B000CDBFDF91CF910895CF93DF93CDB7DEB755
:1005C00028970FB6F894DEBF0FBECDBF0E94E201A0
:1005D0001C824CC01B8243C08C81882319F08C8103
:1005E0008F3029F481E090E098878F8302C01886CD
:1005F0001F829F819A838B81882319F08B818F338F
:1006000029F481E090E09E838D8302C01E821D82CA
:100610009D8199838A81882341F08981882329F0EB
:1006200060E08BE20E94B50112C08A81882329F024
:1006300060E08DE20E94B5010AC08981882329F01B
:1006400060E081E20E94B50102C00E9422028B811B
:100650008F3311F40E9403028B818F5F8B838B8118
:10066000803408F4B9CF8C818F5F8C838C8180318A
:1006700008F4B0CF28960FB6F894DEBF0FBECDBFFA
:10068000DF91CF910895CF93DF93CDB7DEB7249755
:100690000FB6F894DEBF0FBECDBF9A8389837C83EB
:1006A0006B83EAE3F0E08FEF8083EBE3F0E010820E
:1006B0000E94D7010E94DC026AE08AE00E94B30235
:1006C00085EF91E00E94380263E084E10E94B3026A
:1006D0008AEF91E00E943802FFCFEF92FF920F93D2
:1006E0001F937B018C0120E030E040E05FE40E943A
:1006F000720688237CF020E030E040E05FE4C8012F
:10070000B7010E94C0040E94DE0660507040804025
:10071000904804C0C801B7010E94DE061F910F91E6
:10072000FF90EF900895A0E0B0E0E9E9F3E00C94C9
:100730005C09FC016A019081923008F41BC1DB0165
:100740008C91823080F0943061F4843009F012C1D1
:100750009181EB018981981709F40CC1E8E0F2E07E
:1007600009C1843011F4FB0105C1823091F492304B
:1007700009F000C1EA01DF0188E00D900992815083
:10078000E1F78181FB0191818923E6018983F601EB
:10079000F1C0923041F362807380EB018A809B80CC
:1007A000E480F580068117812C813D814E815F8137
:1007B0005301A818B908C501B7FCABC080970CF469
:1007C00057C0861497040CF4BEC03401EE24FF24F5
:1007D00087019181FB018181981709F4A6C09923B3
:1007E00009F49CC02E193F09400B510B57FDB0C0B6
:1007F000E60119827B826A82F6012483358346836F
:100800005783E6012C813D814E815F8179018A0108
:10081000DA01C9010197A109B1098F5F9F4FAF4F5D
:10082000BF43F8F4E6016A817B81A8019701220F9A
:10083000331F441F551F6150704079018A01DA014E
:10084000C9010197A109B1098F5F9F4FAF4FBF4306
:1008500060F3E6017B836A83F60124833583468354
:10086000578383E0D6018C9357FD39C0F60182C0CF
:1008700086149704B4F4C0E0D0E0DA01C9018170B5
:100880009070A070B0705695479537952795282B96
:10089000392B4A2B5B2B2196AC16BD0671F78A0CBF
:1008A0009B1C681479040CF094CFC0E0D0E0540194
:1008B000A618B708D801C70181709070A070B070F9
:1008C00016950795F794E794E82AF92A0A2B1B2B2B
:1008D0002196AC16BD0671F76A0C7B1C7ACFDA0143
:1008E000C901B695A795979587952170307040708E
:1008F0005070282B392B4A2B5B2BE6012C833D8330
:100900004E835F838A819B8101969B838A83F60154
:1009100031C0882799278A199B0950CFE21AF30A18
:10092000040B150BA801970161CFE60199837B8227
:100930006A822E0D3F1D401F511FF601248335830F
:10094000468357838ECF20E030E040E050E041CF37
:1009500081E0E60189837B826A82509540953095DB
:1009600021953F4F4F4F5F4FF601248335834683D8
:10097000578347CFCF01EEE0CDB7DEB70C947809AF
:10098000A0E2B0E0E6ECF4E00C94640969837A83B9
:100990008B839C832D833E834F83588789E1E82E88
:1009A000F12CEC0EFD1EB701CE0101960E945008FD
:1009B0008E010F5E1F4FB801CE0105960E945008B0
:1009C0008A8991E089278A8BAE01475F5F4FB80122
:1009D000C7010E9493030E942E07E6E0A0960C94A4
:1009E0008009A0E2B0E0E7EFF4E00C9464096983C9
:1009F0007A838B839C832D833E834F83588799E131
:100A0000E92EF12CEC0EFD1EB701CE0101960E94DD
:100A100050088E010F5E1F4FB801CE0105960E944F
:100A20005008AE01475F5F4FB801C7010E949303B2
:100A30000E942E07E6E0A0960C948009A0E2B0E0A8
:100A4000E4E2F5E00C94580969837A838B839C83F4
:100A50002D833E834F8358878E01075E1F4FB80159
:100A6000CE0101960E945008F1E1EF2EF12CEC0E20
:100A7000FD1EB701CE0105960E945008898D823077
:100A800078F09989923040F420E09A8D8A89981301
:100A900021E02A8BB701E9C0843051F4923061F033
:100AA00020E09A8D8A89981321E02A8FB801DDC051
:100AB000943029F4823041F768E072E0D6C0823089
:100AC00079F3923009F32D8D3E8D4F8D58A18D898C
:100AD0009E89AF89B88D222433242101AA24BB2406
:100AE0006501EE24FF24870160E070E00DC06F5FB8
:100AF0007F4F6032710599F1880F991FAA1FBB1FA4
:100B0000569547953795279520FF19C0280E391E11
:100B10004A1E5B1E662477244301281639064A06BE
:100B20005B0628F4E1E06E2E712C812C912CAE0C2A
:100B3000BF1CC01ED11EA60CB71CC81CD91CEE0CB5
:100B4000FF1C001F111FB7FFD2CFE1E06E2E712CEA
:100B5000812C912CE628F72808291929C8CF8B8DDC
:100B60009C8D2B893C89820F931F02969C878B87D3
:100B70001A869A8D8A89981711F081E08A87D7FEA4
:100B800017C08B859C85A0FE0CC056944794379463
:100B9000279420E030E040E050E8222A332A442A1B
:100BA000552AD694C794B794A79401969C878B87AF
:100BB00030E0A31630E0B30630E0C30630E4D306DD
:100BC00018F58B859C850EC0220C331C441C551CCB
:100BD000019720E0A21620E0B20620E0C20620E441
:100BE000D20680F4AA0CBB1CCC1CDD1C57FEECCF3B
:100BF00031E0632E712C812C912CA628B728C828AF
:100C0000D928E2CF9C878B87D601C5018F7790705A
:100C1000A070B07080349105A105B10551F0AD868A
:100C2000BE86CF86D88A83E08987BE01675F7F4F03
:100C30001CC0A7FCF4CF211431044104510479F302
:100C400080E490E0A0E0B0E0A80EB91ECA1EDB1E52
:100C500080E8682E8FEF782E8FEF882E8FEF982EFA
:100C6000A620B720C820D920DACFCB010E942E07BA
:100C7000E2E1A0960C947409A8E1B0E0E2E4F6E0A9
:100C80000C94640969837A838B839C832D833E83D0
:100C90004F83588781E1E82EF12CEC0EFD1EB70141
:100CA000CE0101960E9450088E01075F1F4FB801C8
:100CB000CE0105960E9450088989823018F42FEFE2
:100CC0003FEF0BC089858230D0F3B801C7010E9485
:100CD000EF08282F332727FD3095C901E6E06896F5
:100CE0000C948009A8E1B0E0E8E7F6E00C94640910
:100CF00069837A838B839C832D833E834F835887BC
:100D000081E1E82EF12CEC0EFD1EB701CE0101961B
:100D10000E9450088E01075F1F4FB801CE01059653
:100D20000E9450088989823018F42FEF3FEF0BC0E2
:100D300089858230D0F3B801C7010E94EF08282FBF
:100D4000332727FD3095C901E6E068960C948009A9
:100D5000A8E1B0E0EEEAF6E00C94640969837A83D6
:100D60008B839C832D833E834F83588781E1E82EBC
:100D7000F12CEC0EFD1EB701CE0101960E94500829
:100D80008E01075F1F4FB801CE0105960E945008E3
:100D90008989823018F08985823018F421E030E0AA
:100DA00008C0B801C7010E94EF08282F332727FD8C
:100DB0003095C901E6E068960C948009ACE0B0E09B
:100DC000E4EEF6E00C94680969837A838B839C8354
:100DD000BE016B5F7F4FCE0101960E9450088D814E
:100DE000823061F0823050F0843069F48E81882343
:100DF00059F52FEF3FEF4FEF5FE72AC020E030E0DB
:100E000040E050E025C02F81388537FDF7CF2F31E6
:100E1000310564F78EE190E0821B930B29853A85BA
:100E20004B855C8504C056954795379527958A95DF
:100E3000D2F78E81882361F05095409530952195A9
:100E40003F4F4F4F5F4F04C020E030E040E050E89C
:100E5000CA01B901E2E02C960C9484094F925F928A
:100E60006F927F928F929F92AF92BF92DF92EF929A
:100E7000FF920F931F9320E030E040E050E0FC0130
:100E8000E480F58006811781D1808081823038F43A
:100E9000D801C701A061AF77B0706FEFD9C08430BF
:100EA00009F46EC0823009F471C0E114F104010547
:100EB000110509F46BC0828193816FEF8238960728
:100EC0000CF06AC062E87FEF681B790B6A3171052C
:100ED0000CF080C047015801062E04C0B694A794B8
:100EE000979487940A94D2F744245524320181E0E0
:100EF00090E0A0E0B0E004C0880F991FAA1FBB1FBC
:100F00006A95D2F70197A109B109E822F9220A23CB
:100F10001B23E114F1040105110529F061E0462EBF
:100F2000512C612C712C85017401E428F5280629C7
:100F30001729D801C7018F779070A070B0708034E6
:100F40009105A105B10509F457C0D801C701CF9695
:100F5000A11DB11D60E070E08030E0E09E07E0E0A0
:100F6000AE07E0E4BE0710F061E070E027E0B69560
:100F7000A795979587952A95D1F7AF77B07068C0F8
:100F800080E090E0A0E0B0E06FEF62C080E090E031
:100F9000A0E0B0E060E05CC0803891058CF7BC0157
:100FA00061587F4FD801C7018F779070A070B070E3
:100FB00080349105A105B105A1F08FE390E0A0E098
:100FC000B0E0E80EF91E0A1F1B1F17FD28C0D8014C
:100FD000C701CCCF60E070E080E090E0A0E0B0E03E
:100FE000CCCFE7FEF2CF80E490E0A0E0B0E0E80EE6
:100FF000F91E0A1F1B1FE9CFE7FC18C080E090E034
:1010000060E0E61660E0F60660E0060760E41607BA
:1010100010F081E090E0BC01D801C701A7CF169580
:101020000795F794E7946F5F7F4FD1CFD801C70141
:10103000805C9F4FAF4FBF4F60E070E08030E0E0DA
:101040009E07E0E0AE07E0E4BE0708F48FCF8CCF48
:10105000282F392F9A2F9F77842F8078892B962FCE
:101060009795992797958F77482F492B6695852FC8
:101070008078862BD794DD24D7948F77582F5D29DD
:10108000CA01B9011F910F91FF90EF90DF90BF90BF
:10109000AF909F908F907F906F905F904F9008954A
:1010A000FC01DB01208131819281492F4F7750E093
:1010B000991F9927991F8381682F660F692B881FB5
:1010C0008827881FFD018183662309F049C0211507
:1010D00031054105510509F470C082E89FEFFD011B
:1010E00093838283220F331F441F551F220F331F08
:1010F000441F551F220F331F441F551F220F331F3C
:10110000441F551F220F331F441F551F220F331F2B
:10111000441F551F220F331F441F551F83E08C931C
:101120002030F0E03F07F0E04F07F0E45F0790F475
:1011300082E89FEF220F331F441F551F0197203075
:1011400060E0360760E0460760E4560798F3FD016B
:1011500093838283FD0124833583468357830895D7
:101160006F3F71F1862F99278F579040FD01938330
:10117000828383E08C93220F331F441F551F220F5D
:10118000331F441F551F220F331F441F551F220FAB
:10119000331F441F551F220F331F441F551F220F9B
:1011A000331F441F551F220F331F441F551F506408
:1011B0002483358346835783089582E08C93089572
:1011C000211531054105510519F484E08C930895EA
:1011D00044FD02C01C92BECF81E08C93BBCFEF9246
:1011E000FF920F931F93CF93DF93FC01DB0180816C
:1011F000823050F09C91923038F0843041F4943039
:10120000B1F08181882381F461E070E04BC09430BB
:10121000E9F18230A1F09230A1F36181ED01898181
:10122000681791F0662381F36FEF7FEF3BC0EB010E
:101230008981682F77278181681B710933C09230BB
:1012400059F560E070E02EC022813381ED018A8182
:101250009B818217930734F3281739079CF0E480A9
:10126000F58006811781FD012481358146815781F2
:101270002E153F0540075107A8F2E216F3060407B2
:101280001507F8F6662309F0BFCFCECFFB018181A9
:10129000882309F0B9CFC8CFEB018981882309F0F1
:1012A000B3CFC2CFCB01E6E0CDB7DEB70C94800957
:1012B0002F923F924F925F926F927F928F929F9266
:1012C000AF92BF92CF92DF92EF92FF920F931F9354
:1012D000CF93DF93CDB7DEB7CA1BDB0B0FB6F89405
:1012E000DEBF0FBECDBF09942A88398848885F8445
:1012F0006E847D848C849B84AA84B984C884DF80B6
:10130000EE80FD800C811B81AA81B981CE0FD11D99
:0E1310000FB6F894DEBF0FBECDBFED010895FD
:10131E0020202020202020202020203020202020AF
:10132E002020202020202020202020200D0A0020F8
:10133E00202020202020202020202320202020209C
:10134E0020202020202020202020200D0A002020D8
:10135E002020202020202020232323202020202076
:10136E00202020202020202020200D0A00202020B8
:10137E002020202020202323232323202020202050
:10138E002020202020202020200D0A002020202098
:10139E00202020202323232323232320202020202A
:1013AE0020202020202020200D0A00202020202078
:1013BE002020232323232323232323202020202004
:1013CE00202020202020200D0A0020202020202058
:1013DE0023232323232323232323232020202020DE
:1013EE002020202020200D0A002020202020232332
:1013FE0023232323232323232323232020202020BE
:10140E0020202020200D0A00202020202020202017
:10141E0020202323232020202026202020202020AF
:10142E00202020200D0A00202020202020202020F7
:10143E00202323232020202323232020202020208C
:10144E002020200D0A0020202020202020202020D7
:10145E00202020202020202020202020202020207E
:10146E0020200D0A002046726F65686C69636865FE
:10147E0020576569686E61636874656E2020202050
:10148E00200D0A0020766F6E204B6C617261207504
:10149E006E64204A6F6E617468616E212020202078
:1014AE00202020200074657374006E6F63682065C1
:1014BE00696E207465737400000000000000000067
:00000001FF
